:100000000C943E000C9448000C9448000C9448005A
:100010000C9448000C9448000C9448000C94480040
:100020000C9448000C9448000C9448000C94480030
:100030000C9448000C9448000C9448000C94480020
:100040000C9448000C9448000C9448000C94480010
:100050000C9448000C9448000C9448000C94480000
:100060000C9448000C9448000C9448000C944800F0
:100070000C9448000C9448000C94480011241FBEB6
:10008000CFEFD8E0DEBFCDBF0E94C6000C94E100E8
:100090000C9400004A9B0AC08FE59AEE0197F1F795
:1000A00000C0000088274A998395089580E008954C
:1000B000109811980895109A119808950F931F930E
:1000C000CF93DF93EC018B01888199818230910578
:1000D00061F14CF40097A1F0019701F1DF91CF910C
:1000E0001F910F9108958330910531F10497B1F775
:1000F0000E944A008111F2CFF801808191810BC0EA
:100100000E944A00811551F381E090E0F80191834B
:10011000808384E090E099838883E0CF0E944A0046
:100120008115E1F282E090E0F1CF0E944A00811552
:10013000A9F283E090E0EACFFFEF23ED80E3F150F6
:1001400020408040E1F700C0000019821882C6CF2D
:10015000CF93DF93EC0188819981009729F0039771
:1001600039F0DF91CF910895DF91CF910C94580031
:100170000E945B002FEF83ED90E321508040904080
:10018000E1F700C0000019821882EBCF00D000D048
:10019000CDB7DEB71C821B821A82198281B18360BF
:1001A00081B95298BE016F5F7F4FCE0103960E94C6
:1001B0005E00BE016F5F7F4FCE0103960E94A800D4
:0601C000F1CFF894FFCF1F
:00000001FF
