:100000000C943E000C9448000C9448000C9448005A
:100010000C9448000C9448000C9448000C94480040
:100020000C9448000C9448000C9448000C94480030
:100030000C9448000C9448000C9448000C94480020
:100040000C9448000C9448000C9448000C94480010
:100050000C9448000C9448000C9448000C94480000
:100060000C9448000C9448000C9448000C944800F0
:100070000C9448000C9448000C94480011241FBEB6
:10008000CFEFD8E0DEBFCDBF0E9472000C94B90064
:100090000C9400004A9B0AC08FE59AEE0197F1F795
:1000A00000C0000088274A998395089580E008954C
:1000B000109A11980895119A109808950E945B0063
:1000C0008FE697E10197F1F700C000000E94580009
:1000D0008FEC97E00197F1F700C0000008951198A8
:1000E0001098089581B1836081B95298C0E0D0E042
:1000F000C430D10521F1C130D10561F02297A1F0C2
:100100000E944A00811125C00E945B0080E0C82F38
:10011000D82FF1CF0E944A0081111BC00E945800C5
:1001200082E0C82F80E0F4CF0E944A008115B1F32D
:100130000E945B000E944A008111FACF04C00E9415
:100140004A0081110FC00E946F0084E007C00E9426
:100150005E000E944A008111FACF81E0C82F80E042
:10016000D82FC6CF0E9458000E944A008111FACFB2
:06017000CBCFF894FFCF95
:00000001FF
