:100000000C943E000C9448000C9448000C9448005A
:100010000C9448000C9448000C9448000C94480040
:100020000C9448000C9448000C9448000C94480030
:100030000C9448000C9448000C9448000C94480020
:100040000C9448000C9448000C9448000C94480010
:100050000C9448000C9448000C9448000C94480000
:100060000C9448000C9448000C9448000C944800F0
:100070000C9448000C9448000C94480011241FBEB6
:10008000CFEFD8E0DEBFCDBF0E94D5000C94E700D3
:100090000C9400004A9B0AC08FE59AEE0197F1F795
:1000A00000C0000088274A998395089580E008954C
:1000B000109A11980895119A109808950E945B0063
:1000C0008FE39FE10197F1F700C000000E94580004
:1000D0008FEC97E00197F1F700C0000008951198A8
:1000E00010980895CF93DF93EC0188819981833034
:1000F000910579F15CF481309105E9F08230910548
:1001000009F1892B79F0DF91CF9108958430910521
:1001100039F10597C1F70E944A008111F4CF198285
:100120001882F1CF0E944A00811569F381E090E0C6
:1001300099838883E8CF0E944A008111E4CF82E04E
:1001400090E0F6CF0E944A008115E9F283E090E04A
:10015000EFCF0E944A008111D6CF84E090E0E8CF33
:100160000E944A00811579F285E090E0E1CFFC0120
:10017000808191818330910581F04CF4813091052B
:1001800071F08230910569F0892B39F0089584303F
:10019000910549F0059729F008950C945B000C94A3
:1001A0005E000C9458000C946F0000D0CDB7DEB701
:1001B0001A82198281B1836081B95298CE01019669
:1001C0000E947200CE0101960E94B700F7CFF8940A
:0201D000FFCF5F
:00000001FF
